:0400000007EF00F016
:100008003F8209ED00F071EF01F00600FACF26F00B
:10001800FBCF27F0E9CF28F0EACF29F0E1CF2AF08B
:10002800E2CF2BF0D9CF2CF0DACF2DF0F3CF2EF092
:10003800F4CF2FF0F6CF30F0F7CF31F0F8CF32F021
:10004800F5CF33F03FC034F040C035F041C036F052
:1000580042C037F09EA844D0000EF2BE010E056ED5
:10006800F29E20EE03F03A50D9263B50DA22DF50B8
:10007800236E2350010D3AC0D9FF3BC0DAFFDECF13
:1000880024F0DDCF25F0F3502424D96EF450252038
:10009800DA6EDF50AD6E05B002D0F29E01D0F28E5E
:1000A80020EE03F03A50D9263B50DA22DF2A20EE20
:1000B80002F03A50D9263B50DA2210EE03F03A50BB
:1000C800E1263B50E222DE50E618D8A409D09D98DC
:1000D80020EE08F03A50D9263B50DA22010EDF6EA6
:1000E8009EAA65D0ABA408D020EE0AF03A50D926D3
:1000F8003B50DA22010E07D020EE0AF03A50D926FA
:100108003B50DA22000EDF6E000EF2BE010E056EC5
:10011800F29E20EE07F03A50D9263B50DA22DF5003
:10012800236E2350010D20EE04F03A50D9263B509F
:10013800DA22DECF24F0DDCF25F0F3502424D96E67
:10014800F4502520DA6EAECFDFFF05B002D0F29E64
:1001580001D0F28EABA203D0AB98AB8808D020EECA
:100168000BF03A50D9263B50DA22000EDF6E20EE13
:1001780007F03A50D9263B50DA22DF2A20EE06F063
:100188003A50D9263B50DA2210EE07F03A50E126D1
:100198003B50E222DE50E65CD8A009D09D9A20EEC2
:1001A80009F03A50D9263B50DA22010EDF6E37C0EB
:1001B80042F036C041F035C040F034C03FF033C0A3
:1001C800F5FF32C0F8FF31C0F7FF30C0F6FF2FC08F
:1001D800F4FF2EC0F3FF2DC0DAFF2CC0D9FF2BC0CF
:1001E800E2FF2AC0E1FF29C0EAFF28C0E9FF27C0D3
:1001F800FBFF26C0FAFF3F921100030E386E030E74
:10020800386401D032D03850D8A402D0100E10D0A3
:100218003804D8A402D0200E0BD0020E3818D8A467
:1002280002D0400E05D0030E3818D8A402D0800E94
:100238008A6E81A004D03850040DF350120081A2B8
:1002480004D03850040DF328120081A405D038508A
:10025800040DF350020F120081A605D03850040D8A
:10026800F350030F1200382ACAD7F00E120080A8E4
:1002780009D0899A926880B8FED7000E896EDF0E81
:10028800926E1200DF0E926E01EC01F0226EF00EFB
:100298002218D8B41200340E396EF20EE82EFED7AA
:1002A800392EFCD701EC01F02218D8A411D0225025
:1002B8000F0B896ED00E926E898A05D080A803D064
:1002C800926880B8FED701EC01F02218D8B4F6D7AE
:1002D800000E896EDF0E926E1200580EF66E030E37
:1002E800F76E000EF86E00EE3AF010EE05F0090019
:1002F800F5CFEEFFE550E150FAE100EE01F0220EF5
:10030800EE6AE806FDE13F903F92000EF86E0001AC
:10031800A7EF01F0D388D38AD38CD382D390DF0E92
:10032800926E0F0E936E800E946E000E896EF00E14
:100338008A6E800E8B6E0F0EC16EC290F28C9D9CE1
:10034800D09EF29E12008EEC01F03BEC01F0FDD73E
:050358001600F001F0A9
:020000040020DA
:08000000FFFFFFFFFFFFFFFF00
:020000040030CA
:0E000000340B3F1EFF8181FF0FC00FE00F4049
:00000001FF
