:040000002FEF7FF06F
:10FE5E00000132EF7FF0000E896E000E8A6E000EEA
:10FE6E008B6E000E8C6E000E8D6E000E926E000E5E
:10FE7E00936E000E946E000E956E000E966E000E32
:10FE8E00C26E0F0EC16E928092829284929692985A
:10FE9E009384949094928996898881A4FED781B494
:10FEAE00FED78986899881A4FED781B4FED789961C
:10FEBE0089988B908B8281A4FED781B4FED78B80DC
:10FECE008B9281A4FED781B4FED78B908B92E3D711
:10FEDE00000E046E000E036E800E036E000E046E96
:10FEEE00070E046401D012D003C089FFD8900332EC
:10FEFE000D0E026EAF0E016EB60EE82EFED7012E5F
:10FF0E00FCD7022EFAD700D0042AEAD7000E896E4B
:10FF1E00800E036E000E046E070E046401D012D024
:10FF2E0003C08AFFD89003320D0E026EAF0E016E23
:10FF3E00B60EE82EFED7012EFCD7022EFAD700D031
:10FF4E00042AEAD7000E8A6E800E036E000E046E2F
:10FF5E00070E046401D012D003C08BFFD890033279
:10FF6E000D0E026EAF0E016EB60EE82EFED7012EEE
:10FF7E00FCD7022EFAD700D0042AEAD7000E8B6ED9
:10FF8E00800E036E000E046E070E046401D012D0B4
:10FF9E0003C08CFFD89003320D0E026EAF0E016EB1
:10FFAE00B60EE82EFED7012EFCD7022EFAD700D0C1
:10FFBE00042AEAD7000E8C6E040E036E000E046E39
:10FFCE00020E046401D012D003C08DFFD89003320C
:10FFDE000D0E026EAF0E016EB60EE82EFED7012E7E
:10FFEE00FCD7022EFAD700D0042AEAD7000E8D6E67
:02FFFE006FD7BB
:020000040020DA
:08000000FFFFFFFFFFFFFFFF00
:020000040030CA
:0E000000FF061F1EFF8381FF0F400FE00F4021
:00000001FF
