:0400000022EF0DF0EE
:1010000000010000000A00000064000000E8030086
:101010000010270000A086010040420F0080969833
:101020000000E1F50500CA9A3B0100000010000035
:10103000000001000000100000000001000000108E
:101040000000000001000000103132334134353619
:1010500042373839432A3023440030041501050350
:101060001800010210022830313233343536373857
:101070003961626364656600253032782F2530322D
:10108000782F2530327800253032783A2530327882
:0B1090003A2530327800256C64000027
:10109C00190E266E000E276EE7D1250E2F18D8B428
:1010AC0004D02F5005EC0DF0DFD1000E2D6E000E8C
:1010BC002C6E000E2E6E03D02E84174A182A17C0E1
:1010CC00F6FF18C0F7FF0800F550300AD8B4F4D773
:1010DC0017C0F6FF18C0F7FF0800F550F6EC0CF03F
:1010EC00D8A037D0000E2D6E000E2C6E2CC001F047
:1010FC002DC002F0000E046E0A0E036EC0EC0CF054
:10110C0001C02CF002C02DF0D00E1F6EFF0E206E11
:10111C0017C0F6FF18C0F7FF0800F550216E226AC1
:10112C001F5021262050222221502C2622502D22C5
:10113C00174A182A17C0F6FF18C0F7FF0800F55019
:10114C00F6EC0CF0D8A005D0D1D72E8802D02E8E7C
:10115C001AD017C0F6FF18C0F7FF174A182A080054
:10116C00F5CF2FF02F50000AD8B41200640AD8B46F
:10117C000AD00D0AD8B407D0050AD8B4E6D7140A99
:10118C00D8B4E5D771D12EBE2ED02EA80ED026C045
:10119C00D9FF27C0DAFFDECF28F0DECF29F0DECF73
:1011AC002AF0DECF2BF0040E0ED026C0D9FF27C0BC
:1011BC00DAFFDECF28F0DDCF29F0000E29BEFF0EBE
:1011CC002A6E2B6E020E2626000E27222BAE6AD01C
:1011DC00030E2E122B1E2A1E291E286C000E2922ED
:1011EC002A222B225FD02EA80ED026C0D9FF27C0D2
:1011FC00DAFFDECF28F0DECF29F0DECF2AF0DECF0B
:10120C002BF0040E0FD026C0D9FF27C0DAFFDECF9B
:10121C001FF0DDCF20F01FC028F020C029F02A6A73
:10122C002B6A020E2626000E27223CD0010E2F6EB2
:10123C000A0E2F18D8B43ED02F50040D010EF324F3
:10124C00F66E100EF420F76E0900F550285C0900BC
:10125C00F55029580900F5502A580900F5502B581B
:10126C00D8A028D02F2AE4D7010E2F6E080E2F18E5
:10127C00D8B420D02F50040D290EF324F66E100E86
:10128C00F420F76E0900F550285C0900F550295838
:10129C000900F5502A580900F5502B58D8A00AD04F
:1012AC002F2AE4D72E50800B000AD8B4BFD7800A5F
:1012BC00D8B4DAD72C502D10D8B409D02EC01FF0CA
:1012CC00030E1F16D8B403D02C06D8A02D06800E02
:1012DC002FBE7F0E1F6E2C502F5C2D50800A1F5876
:1012EC00D8B007D02F502C5E000E2FBEFF0E2D5AFB
:1012FC0004D0000E2D6E000E2C6E2EA414D02EC019
:10130C001FF0030E1F16D8B403D02D0E05EC0DF0F4
:10131C002C502D10D8B41ED0300E05EC0DF02C0630
:10132C00D8A02D06F5D72C502D10D8B40AD0200EED
:10133C0005EC0DF02C06D8A02D062C502D10D8A4A1
:10134C00F6D72EC01FF0030E1F16D8B403D02D0EE7
:10135C0005EC0DF02F50246E256A24BE25067CD09A
:10136C0024C01FF025C020F0D8901F362036D8900E
:10137C001F362036010E1F24F66E100E2020F76E3D
:10138C000900F5CF05F00900F5CF06F00900F5CFFF
:10139C0007F00A00F5CF08F028C001F029C002F0D0
:1013AC002AC003F02BC004F05AEC0BF001C00EF075
:1013BC0002C00FF003C010F004C011F00A0E126E40
:1013CC00000E136E000E146E000E156EDAEC0BF0A0
:1013DC000E50300F2F6E3DD028C001F029C002F006
:1013EC002AC003F02BC004F024C01FF025C020F04D
:1013FC00D8901F362036D8901F362036290E1F2441
:10140C00F66E100E2020F76E0900F5CF05F00900DE
:10141C00F5CF06F00900F5CF07F00A00F5CF08F07C
:10142C005AEC0BF001500F0B236E2350010D670E7D
:10143C00F324F66E100EF420F76E0800F5CF2FF0A3
:10144C0008D02E50800B000AD8B48AD7800AD8B4A2
:10145C00C3D72F5005EC0DF02406D8A02506242860
:10146C00F0E12528D8A4EDD717C0F6FF18C0F7FF78
:10147C00174A182A0800F5CF2FF02F50D8B41200B5
:10148C000CD6000E896E000E8A6E000E8B6E000E4E
:10149C008C6E000E8D6E92689368800E946E000EAA
:1014AC00956E000E966E000EC26E0F0EC16E3BEC6A
:1014BC000CF0B80E3D6E440E3E6E9C0E3F6E000E50
:1014CC00406E960E176E100E186E3DC019F03EC091
:1014DC001AF03FC01BF040C01CF04EEC08F0C00EE0
:1014EC000FEC0DF03DC009F03EC00AF03FC00BF010
:1014FC0040C00CF0100EE5EC0CF0100E07EC0BF0ED
:10150C0008C032F009C033F00AC034F00BC035F01B
:10151C00960E176E100E186E32C019F033C01AF0FA
:10152C0034C01BF035C01CF04EEC08F0FFD732EC89
:10153C000DF0000E036ED00E026E29EC0DF0000EB5
:10154C00036E000E026E29EC0DF02EEC0DF032EC59
:10155C000DF0000E036ED10E026E29EC0DF0000E94
:10156C00416E050E416401D00ED04150010D360E76
:10157C00F324D96E000EF420DA6E000ED3EC0CF0CE
:10158C00DF6E412AEED7010ED3EC0CF03C6E2EEC44
:10159C000DF0800E0FEC0DF0410E306EEE0EE82EBD
:1015AC00FED7302EFCD700D0780E176E100E186EAA
:1015BC003CC019F01A6A3BC01BF01C6A3AC01DF003
:1015CC001E6A4EEC08F0C00E0FEC0DF0870E176E75
:1015DC00100E186E38C019F01A6A37C01BF01C6A4E
:1015EC0036C01DF01E6A4EEC08F0330E316EBB0E89
:1015FC00306EE00EE82EFED7302EFCD7312EFAD707
:10160C0096D7246E250E046E000E056E245095ECB4
:10161C000CF028C00CF00D6A0E6A0F6A0CC00FF0AB
:10162C000E6A0D6A0C6A27C010F0116A126A136AEE
:10163C0011C013F010C012F0116A106A26C014F019
:10164C00156A166A176A16C017F015C016F014C082
:10165C0015F0146A25C018F0196A1A6A1B6A14501E
:10166C0018101C6E155019101D6E16501A101E6E87
:10167C0017501B101F6E10501C10206E11501D1097
:10168C00216E12501E10226E13501F10236E0C5020
:10169C002010086E0D502110096E0E5022100A6E8B
:1016AC000F5023100B6E1200000E096E000E0A6E06
:1016BC00000E0B6E000E0C6E055006100710081075
:1016CC00D8B42AD0010E0D6E06D0D8900536063649
:1016DC00073608360D2A08AEF8D7D89009360A36E0
:1016EC000B360C360550015C065002580750035857
:1016FC0008500458D8A009D00550015E0650025A73
:10170C000750035A0850045A0980D89008320732FF
:10171C00063205320D2EE1D709C001F00AC002F0E5
:10172C000BC003F00CC004F01200026E0250F00B60
:10173C00016E8C500F0B8C6E01508C108C6E000E49
:10174C00F2BE010E426EF29E8C86530EE82EFED730
:10175C0000F08C96C80E00D0E82EFDD742B002D017
:10176C00F29E01D0F28E0238F00B026E0250F00B9A
:10177C00016E8C500F0B8C6E01508C108C6E000E09
:10178C00F2BE010E426EF29E8C86530EE82EFED7F0
:10179C0000F08C96C80E00D0E82EFDD742B002D0D7
:1017AC00F29E01D0F28E120012501310141015106C
:1017BC00D8B424D0010E166E06D0D890123613363B
:1017CC0014361536162A15AEF8D712500E5C135077
:1017DC000F581450105815501158D8A008D012504A
:1017EC000E5E13500F5A1450105A1550115AD890AF
:1017FC001532143213321232162EE7D70EC00EF0F9
:10180C000FC00FF010C010F011C011F01200C69AEA
:10181C0094869488800EC76E280EC66E000EC56E18
:10182C00000E016E5A0E026E620E036E020E046EF4
:10183C000EC012F00FC013F010C014F011C015F050
:10184C00020ED8901236133614361536E82EF9D708
:10185C0012C005F013C006F014C007F015C008F054
:10186C005AEC0BF00104C86E1200C30E046ECD0EC0
:10187C00E82EFED7042EFCD700F0330E0FEC0DF043
:10188C00320E0FEC0DF0280E0FEC0DF00F0E0FECCE
:10189C000DF0060E0FEC0DF0010E0FEC0DF0C30E5B
:1018AC00046ECD0EE82EFED7042EFCD700F00F0EE2
:1018BC000FEC0DF01200046EA6B2FED704C0A9FF07
:1018CC0001C0A8FFA69EA69CA684F29E550EA76EEC
:1018DC00AA0EA76EA682F28E060E036E130E026E71
:1018EC00AE0EE82EFED7022EFCD7032EFAD712002E
:1018FC00076E000E086E030E086401D0120008502B
:10190C00010DF3500524D96EF4500620DA6EDF5029
:10191C00016E0750082461EC0CF0082AECD7066E17
:10192C00000E076E030E076401D012000750010D64
:10193C00F3500424D96EF4500520DA6E06500724B7
:10194C00ABEC0CF0DF6E072AEDD7036EA6B2FED718
:10195C0003C0A9FFA69EA69CA680060E026E130EBF
:10196C00016EAE0EE82EFED7012EFCD7022EFAD752
:10197C00A850120001500302F3CF05F0F4CF06F08B
:10198C0001500402F350062602500302F3500626BF
:10199C0005C001F006C002F01200026E19EC0DF049
:1019AC00C58619EC0DF0C9CF03F019EC0DF002B09F
:1019BC0002D0C59A01D0C58AC588035012000D6E9D
:1019CC0009C00EF00AC00FF00BC010F00CC011F0E3
:1019DC000E0E056E000E066E0D507EEC0CF0120015
:1019EC00036E000E026E3A0E036005D02F0E0364D8
:1019FC0002D0010E026E02C001F001301200036E23
:101A0C008C8403509BEC0BF0C80E00D0E82EFDD755
:101A1C001200036E8C9403509BEC0BF0C80E00D09C
:101A2C00E82EFDD71200C7B4FED7C5CF01F01F0EAC
:101A3C000116D8B41200F7D7436A426A000EF86E4A
:101A4C00000147EF0AF019EC0DF002C0C9FF1200BB
:101A5C0019EC0DF0C584120019EC0DF0C5801200C4
:020000040020DA
:08000000FFFFFFFFFFFFFFFF00
:020000040030CA
:0E000000FF061F1EFF8381FF0F400FE00F4021
:00000001FF
