:0400000007EF00F016
:100008004A8209ED00F062EF02F00600FACF26F00E
:10001800FBCF27F0E9CF28F0EACF29F0E1CF2AF08B
:10002800E2CF2BF0D9CF2CF0DACF2DF0F3CF2EF092
:10003800F4CF2FF0F6CF30F0F7CF31F0F8CF32F021
:10004800F5CF33F04AC034F04BC035F04CC036F031
:100058004DC037F09EA844D0000EF2BE010E056ECA
:10006800F29E20EE03F04550D9264650DA22DF50A2
:10007800236E2350010D45C0D9FF46C0DAFFDECFFD
:1000880024F0DDCF25F0F3502424D96EF450252038
:10009800DA6EDF50AD6E05B002D0F29E01D0F28E5E
:1000A80020EE03F04550D9264650DA22DF2A20EE0A
:1000B80002F04550D9264650DA2210EE03F045509A
:1000C800E1264650E222DE50E618D8A409D09D98D1
:1000D80020EE08F04550D9264650DA22010EDF6E90
:1000E8009EAA65D0ABA408D020EE0AF04550D926C8
:1000F8004650DA22010E07D020EE0AF04550D926E4
:100108004650DA22000EDF6E000EF2BE010E056EBA
:10011800F29E20EE07F04550D9264650DA22DF50ED
:10012800236E2350010D20EE04F04550D926465089
:10013800DA22DECF24F0DDCF25F0F3502424D96E67
:10014800F4502520DA6EAECFDFFF05B002D0F29E64
:1001580001D0F28EABA203D0AB98AB8808D020EECA
:100168000BF04550D9264650DA22000EDF6E20EEFD
:1001780007F04550D9264650DA22DF2A20EE06F04D
:100188004550D9264650DA2210EE07F04550E126B0
:100198004650E222DE50E65CD8A009D09D9A20EEB7
:1001A80009F04550D9264650DA22010EDF6E37C0D5
:1001B8004DF036C04CF035C04BF034C04AF033C077
:1001C800F5FF32C0F8FF31C0F7FF30C0F6FF2FC08F
:1001D800F4FF2EC0F3FF2DC0DAFF2CC0D9FF2BC0CF
:1001E800E2FF2AC0E1FF29C0EAFF28C0E9FF27C0D3
:1001F800FBFF26C0FAFF4A921100000E0001616F52
:100208003FAE0AD03F1E3E1E3D1E3C6C000E3D22F6
:100218003E223F22010E616F3BAE0AD03B1E3A1EC2
:10022800391E386C000E39223A223B22010E611B1E
:10023800000E626F000E636F000E646F000E656F34
:100248003C503D103E103F10D8B42AD0010E606FCC
:1002580006D0D8903C363D363E363F36602B3FAE12
:10026800F8D7D89062376337643765373C50385CC5
:100278003D5039583E503A583F503B58D8A009D0C5
:100288003C50385E3D50395A3E503A5A3F503B5ADE
:100298006281D8903F323E323D323C32602FE1D706
:1002A8006151D8B408D0651F641F631F626D000ECA
:1002B80063236423652362C038F063C039F064C0E7
:1002C8003AF065C03BF0120020EE08F04550D92600
:1002D8004650DA22DF50D8B4F7D720EE08F0455060
:1002E800D9264650DA22000EDF6E000E3C6EAC8A2C
:1002F8000D0E3B6EFC0EE82EFED73B2EFCD723D00E
:10030800ACB202D0010E01D0000E3B6E9EB802D0F6
:10031800010E01D0000E3B10F3E100F0000EF2BE1A
:10032800010E056EF29E3C50010DF3503824D96E33
:10033800F4503920DA6EDF50AD6E05B002D0F29E6F
:1003480001D0F28E3C2A3A503C5CD8A0D9D720EE96
:1003580008F04550D9264650DA22010EDF6E120009
:10036800000E386E120E396E7A0E3A6E000E3B6E23
:1003780040C066F041C067F042C068F043C069F011
:10038800060ED89000016637673768376937E82E58
:10039800F8D766C03CF067C03DF068C03EF069C061
:1003A8003FF001EC01F03804AF6EAC9CAC98AC8A1D
:1003B800AB9CAB8820EE08F04550D9264650DA228F
:1003C800010EDF6E20EE09F04550D9264650DA229C
:1003D800010EDF6E060E1A6E000E1B6E949C948E34
:1003E800AB8E1200000E386E030E386401D032D086
:1003F8003850D8A402D0100E10D03804D8A402D097
:10040800200E0BD0020E3818D8A402D0400E05D00A
:10041800030E3818D8A402D0800E8A6E81A004D0AA
:100428003850040DF350120081A204D03850040D46
:10043800F328120081A405D03850040DF350020FA0
:10044800120081A605D03850040DF350030F120096
:10045800382ACAD7F00E1200F6EC01F0226EF00E20
:100468002218D8B41200340E3D6EF20EE82EFED7D4
:100478003D2EFCD7F6EC01F02218D8A41200220E6B
:10048800386E000E396E010E3A6E68EC01F008D035
:10049800220E386E000E396E010E3A6E68EC01F0CD
:1004A800F6EC01F02218D8B4F3D7490E386E000ED6
:1004B800396E010E3A6E68EC01F01200640EF66EA9
:1004C800050EF76E000EF86E00EE45F010EE05F022
:1004D8000900F5CFEEFFE550E150FAE100EE01F03A
:1004E800220EEE6AE806FDE14A904A92000EF86E86
:1004F80000017FEF02F099EC02F0800E406E250EAD
:10050800416E000E426E000E436EB4EC01F0AC8AF0
:100518000D0E446EFC0EE82EFED7442EFCD7EF0ECF
:10052800926E898830EC02F0FDD7D388D38AD38CB9
:10053800D382D390DF0E926E0F0E936E800E946E60
:10054800000E896EF00E8A6E800E8B6E0F0EC16ED5
:10055800C290F28C9D9CD09EF29E12001600F00173
:01056800F0A2
:020000040020DA
:08000000FFFFFFFFFFFFFFFF00
:020000040030CA
:0E000000340B3F1EFF8181FF0FC00FE00F4049
:00000001FF
