:0400000007EF00F016
:0A000800518204ED08F049EF0AF000
:1010000000000102100228000600FACF04F0FBCF16
:1010100005F0E9CF06F0EACF07F0E1CF08F0E2CF24
:1010200009F0D9CF0AF0DACF0BF0F3CF0CF0F4CF00
:101030000DF0F6CF0EF0F7CF0FF0F8CF10F0F5CFA0
:1010400011F051C012F052C013F053C014F054C04C
:1010500015F09EA846D0000EF2BE010E2F6EF29E35
:1010600020EE03F04E50D9264F50DA22DF50016EA9
:101070000150010D4EC0D9FF4FC0DAFFDECF02F0A4
:10108000DDCF03F0F3500224D96EF4500320DA6E62
:10109000DF50AD6E2FB002D0F29E01D0F28E20EE66
:1010A00003F04E50D9264F50DA22DF2A20EE02F00C
:1010B0004E50D9264F50DA2210EE03F04E50E12662
:1010C0004F50E222DE50E618D8A409D09D9820EEB9
:1010D00008F04E50D9264F50DA22010EDF6E949060
:1010E0008B809EAA65D0ABA408D020EE0AF04E50AB
:1010F000D9264F50DA22010E07D020EE0AF04E50CA
:10110000D9264F50DA22000EDF6E000EF2BE010E1D
:101110002F6EF29E20EE07F04E50D9264F50DA2265
:10112000DF50016E0150010D20EE04F04E50D92623
:101130004F50DA22DECF02F0DDCF03F0F35002246D
:10114000D96EF4500320DA6EAECFDFFF2FB002D09D
:10115000F29E01D0F28EABA203D0AB98AB8808D040
:1011600020EE0BF04E50D9264F50DA22000EDF6EE3
:1011700020EE07F04E50D9264F50DA22DF2A20EE1B
:1011800006F04E50D9264F50DA2210EE07F04E509E
:10119000E1264F50E222DE50E65CD8A009D09D9AAD
:1011A00020EE09F04E50D9264F50DA22010EDF6EA4
:1011B00015C054F014C053F013C052F012C051F0D7
:1011C00011C0F5FF10C0F8FF0FC0F7FF0EC0F6FF0B
:1011D0000DC0F4FF0CC0F3FF0BC0DAFF0AC0D9FF4B
:1011E00009C0E2FF08C0E1FF07C0EAFF06C0E9FF4F
:1011F00005C0FBFF04C0FAFF51921100000E1F6EE4
:101200001DAE0AD01D1E1C1E1B1E1A6C000E1B22BA
:101210001C221D22010E1F6E19AE0AD0191E181EA7
:10122000171E166C000E172218221922010E1F1A03
:10123000000E206E000E216E000E226E000E236E38
:101240001A501B101C101D10D8B42AD0010E1E6E8F
:1012500006D0D8901A361B361C361D361E2A1DAEF7
:10126000F8D7D89020362136223623361A50165C0D
:101270001B5017581C5018581D501958D8A009D089
:101280001A50165E1B50175A1C50185A1D50195AE6
:101290002080D8901D321C321B321A321E2EE1D70C
:1012A0001F50D8B408D0231E221E211E206C000E11
:1012B00021222222232220C016F021C017F022C0B2
:1012C00018F023C019F01200000E166E5A0E176E99
:1012D000620E186E020E196E24C028F025C029F087
:1012E00026C02AF027C02BF0060ED89028362936C3
:1012F0002A362B36E82EF9D728C01AF029C01BF061
:101300002AC01CF02BC01DF0FEEC08F01604AF6ED6
:10131000AC9CAC98AC8AAB9CAB8820EE08F04E50ED
:10132000D9264F50DA22010EDF6E20EE09F04E5022
:10133000D9264F50DA22010EDF6E320E466E000EB5
:10134000476E949C948EAB8E1200000E896E000E38
:101350008A6E000E8B6E000E8C6E000E8D6E926883
:101360009368800E946E000E956E000E966E000EC1
:10137000C26E0F0EC16EF28EF28C800E246E250EA0
:10138000256E000E266E000E276E64EC09F050C02C
:101390002EF02E0E166E000E176E010E186E15EC46
:1013A0000AF0010EE0EC09F0330E2D6EBB0E2C6E30
:1013B000E00EE82EFED72C2EFCD72D2EFAD7E9D73B
:1013C000166E20EE09F04E50D9264F50DA22DF502B
:1013D000D8B4F7D720EE09F04E50D9264F50DA2274
:1013E000000EDF6E20EE06F04E50D9264F50DA2266
:1013F00016C0DFFF20EE07F04E50D9264F50DA22FC
:10140000000EDF6E20EE0AF04E50D9264F50DA2241
:10141000010EDF6E20EE0BF04E50D9264F50DA222F
:10142000010EDF6EAB889D8A120020EE08F04E5050
:10143000D9264F50DA22DF50D8B4F7D720EE08F083
:101440004E50D9264F50DA22000EDF6E4EC0D9FF23
:101450004FC0DAFF16C0DEFF17C0DDFF20EE02F03E
:101460004E50D9264F50DA2218C0DFFF20EE03F08D
:101470004E50D9264F50DA22000EDF6EAC8A410E54
:10148000196EEE0EE82EFED7192EFCD700D09D88DF
:101490001200CE0EF66E140EF76E000EF86E0900F6
:1014A000F5CF4EF00900F5CF4FF00900F5CF50F021
:1014B00000EE2FF01F0EEE6AE806FDE1519051920A
:1014C000000EF86E100EF76E0001A5EF09F0420055
:0114D00048D3
:020000040020DA
:08000000FFFFFFFFFFFFFFFF00
:020000040030CA
:0E000000FF061F1EFF8381FF0F400FE00F4021
:00000001FF
