:040000007CEF0DF094
:1010000000D300940082004B00FF00000000FF00AE
:101010000000FFFF00008CFF000000FF00FFFFFF4B
:10102000008080800000000000C7C5C4C3C2C1C0EA
:10103000B4B3B2B13A3938363534302C2B2A29289A
:10104000262120131211100100C7C5C4C3C2C1C09C
:10105000B4B3B2B13A3938363534302C2B2A29287A
:101060002621201312111001008080A080008C80A6
:101070008C8295909592040EF4EC0CF0020E1B6E8F
:10108000040E1A6EBA0EE82EFED71A2EFCD71B2EAF
:10109000FAD700D0010E046E470EF66E100EF76EF2
:1010A0000800F55043EC0DF0070E1B6E990E1A6EFA
:1010B000490EE82EFED71A2EFCD71B2EFAD700F0C9
:1010C000010E046E450EF66E100EF76E0800F55018
:1010D00043EC0DF0070E1B6E990E1A6E490EE82EAA
:1010E000FED71A2EFCD71B2EFAD700F0010E046E85
:1010F000330EF66E100EF76E0800F55043EC0DF04F
:10110000000E046E000E43EC0DF0000E046E060E91
:1011100043EC0DF0000E046E030E43EC0DF0010ED7
:10112000046E320EF66E100EF76E0800F55043ECAA
:101130000DF0000E046E010E43EC0DF0000E046E77
:101140002C0E43EC0DF0000E046E2D0E43EC0DF052
:10115000010E046E310EF66E100EF76E0800F5509B
:1011600043EC0DF0000E046E010E43EC0DF0000E8A
:10117000046E2C0E43EC0DF0000E046E2D0E43ECAD
:101180000DF0010E046E300EF66E100EF76E0800B4
:10119000F55043EC0DF0000E046E000E43EC0DF024
:1011A000010E046E2F0EF66E100EF76E0800F5504D
:1011B00043EC0DF0000E046EA20E43EC0DF0000E99
:1011C000046E020E43EC0DF0000E046E840E43EC30
:1011D0000DF0010E046E2E0EF66E100EF76E080066
:1011E000F55043EC0DF0000E046EC50E43EC0DF00F
:1011F000010E046E2D0EF66E100EF76E0800F550FF
:1012000043EC0DF0000E046E0A0E43EC0DF0000EE0
:10121000046E000E43EC0DF0010E046E2C0EF66E03
:10122000100EF76E0800F55043EC0DF0000E046E42
:101230008A0E43EC0DF0000E046E2A0E43EC0DF006
:10124000010E046E2B0EF66E100EF76E0800F550B0
:1012500043EC0DF0000E046E8A0E43EC0DF0000E10
:10126000046E2A0E43EC0DF0010E046E2A0EF66E8B
:10127000100EF76E0800F55043EC0DF0000E046EF2
:101280003C0E43EC0DF0010E046E420EF66E100E95
:10129000F76E0800F55043EC0DF0120ECCEC0CF09C
:1012A000010E046E400EF66E100EF76E0800F5503B
:1012B00043EC0DF0000E046E010E43EC0DF0010E38
:1012C000046E360EF66E100EF76E0800F55043EC05
:1012D0000DF0010E046E430EF66E100EF76E080050
:1012E000F55043EC0DF03F8C3F8E3F8A3F983F9680
:1012F0003F94010E046E370EF66E100EF76E080066
:10130000F55043EC0DF0000E046E3F5043EC0DF031
:101310006A0EF66E100EF76E0800F5CF07F0000E9D
:10132000086E690EF66E100EF76E0800F5CF09F024
:10133000250EF66E100EF76E0900F5CF0AF00900C3
:10134000F5CF0BF00900F5CF0CF00A00F5CF0DF04A
:10135000000EBEEC0AF0010E046E3E0EF66E100E8C
:10136000F76E0800F55043EC0DF0820E1A6EDE0E9B
:10137000E82EFED71A2EFCD712002AEC0DF0120E22
:10138000076E000E086E690EF66E100EF76E0800FE
:10139000F5CF09F0190EF66E100EF76E0900F5CFB5
:1013A0000AF00900F5CF0BF00900F5CF0CF00A00A8
:1013B000F5CF0DF0000EBEEC0AF0240E076E000E05
:1013C000086E690EF66E100EF76E0800F5CF09F084
:1013D000150EF66E100EF76E0900F5CF0AF0090033
:1013E000F5CF0BF00900F5CF0CF00A00F5CF0DF0AA
:1013F000120EBEEC0AF0360E076E000E086E690E75
:10140000F66E100EF76E0800F5CF09F0110EF66EAD
:10141000100EF76E0900F5CF0AF00900F5CF0BF0BA
:101420000900F5CF0CF00A00F5CF0DF0240EBEEC4C
:101430000AF0480E076E000E086E690EF66E100E6A
:10144000F76E0800F5CF09F00D0EF66E100EF76E70
:101450000900F5CF0AF00900F5CF0BF00900F5CF30
:101460000CF00A00F5CF0DF0360EBEEC0AF05A0E65
:10147000076E000E086E690EF66E100EF76E08000D
:10148000F5CF09F0090EF66E100EF76E0900F5CFD4
:101490000AF00900F5CF0BF00900F5CF0CF00A00B7
:1014A000F5CF0DF0480EBEEC0AF06C0E076E000E84
:1014B000086E690EF66E100EF76E0800F5CF09F093
:1014C000050EF66E100EF76E0900F5CF0AF0090052
:1014D000F5CF0BF00900F5CF0CF00A00F5CF0DF0B9
:1014E0005A0EBEEC0AF0800E076E000E086E690EF2
:1014F000F66E100EF76E0800F5CF09F0010EF66ECD
:10150000100EF76E0900F5CF0AF00900F5CF0BF0C9
:101510000900F5CF0CF00A00F5CF0DF06C0EBEEC13
:101520000AF08F0E016ED90E026E020E036E000ECF
:10153000046E000E056E000E066EE00E076EA00E25
:10154000086E10EC0DF020EE37F0070EEBCFDBFF4E
:10155000E806FCE2000E226E000E216E000E246EE4
:10156000000E236E20EE37F000EE25F0070EDBCFE5
:10157000EBFFE806FCE27EEC0BF0ECD7196E3FBC0B
:101580003FAA05D0030E0826030E092615D03FAE4C
:1015900008D0020E0826020E0926030E1926030E95
:1015A0000ED03FAC07D0020E0826020E0926192ADB
:1015B000072A06D0082A092A020E1926020E072633
:1015C000010E046E3C0EF66E100EF76E0800F5501C
:1015D00043EC0DF0000E046E000E43EC0DF0000E17
:1015E000046E195043EC0DF0000E046E000E43EC37
:1015F0000DF0000E046E070443EC0DF0010E046EB6
:101600003D0EF66E100EF76E0800F55043EC0DF02F
:10161000000E046E000E43EC0DF0000E046E085038
:1016200043EC0DF0000E046E000E43EC0DF0000EC6
:10163000046E090443EC0DF0010E046E3B0EF66ED1
:10164000100EF76E0800F55043EC0DF01950071816
:10165000D8A414D008500918D8A410D0000E046ED5
:101660000A5043EC0DF0000E046E0B5043EC0DF0ED
:10167000000E046E0C5043EC0DF0120019500E6E6B
:101680000F6A0E1E0F1E0E4A0F2A07500E24016EFF
:10169000000E0F20026E0850106E116A101E111EEF
:1016A000104A112A09501024036E000E1120046EF6
:1016B00057EC0DF001C012F002C013F00AC016F092
:1016C0000BC017F00CC018F08C908C82000E156EB9
:1016D000000E146E0BD0165082EC0DF0175082ECF9
:1016E0000DF0185082EC0DF0144A152A1250145CBB
:1016F00013501558D8A0EFD78C801200010E316E10
:10170000000E326E000E336E000E346E000E366E1A
:10171000000E356E36BE08D0365005E1200E355C21
:10172000D8B0120001D01200315025142D6E325065
:1017300026142E6E335027142F6E34502814306E1A
:101740002D502E102F103010D8B429D035C001F0F4
:1017500036C002F0000E046E050E036E1BEC0CF09A
:1017600001501A6E250EF66E100EF76E0900F5CFB9
:101770001BF00900F5CF1CF00900F5CF1DF00A00A1
:10178000F5CF1EF035C001F036C002F0000E046E39
:10179000050E036E5DEC0CF0015095EC0CF0315031
:1017A00029142D6E32502A142E6E33502B142F6EA6
:1017B00034502C14306E2D502E102F103010D8B401
:1017C0002DD0200E3524016E000E3620026E000E44
:1017D000046E050E036E1BEC0CF001501A6E250E04
:1017E000F66E100EF76E0900F5CF1BF00900F5CF6D
:1017F0001CF00900F5CF1DF00A00F5CF1EF0200EF9
:101800003524016E000E3620026E000E046E050EA9
:10181000036E5DEC0CF0015095EC0CF0D890313675
:10182000323633363436354A362A36BE7DD73650D0
:1018300001E174D71200000E066E04AE06D0036CF0
:10184000041ED8B0042A010E066E02AE06D0016C4A
:10185000021ED8B0022A010E061A000E086E000EF3
:10186000076E03500410D8B41CD0010E056E04D0CE
:10187000D89003360436052A04AEFAD7D890073636
:1018800008360350015C04500258D8A005D003501C
:10189000015E0450025A0780D89004320332052EAC
:1018A000EDD70650D8B404D0076C081ED8B0082A6B
:1018B00007C001F008C002F01200000E066E02AE72
:1018C00006D0016C021ED8B0022A010E066E04AECC
:1018D00004D0036C041ED8B0042A03500410D8B4FA
:1018E00018D0010E056E04D0D89003360436052AB0
:1018F00004AEFAD70350015C04500258D8A004D0BB
:101900000350015E0450025AD89004320332052E6F
:10191000F1D70650D8B404D0016C021ED8B0022A08
:1019200001C001F002C002F01200206E6A0EF66ED5
:10193000100EF76E0900F550205CD8A009D06A0E91
:10194000F66E100EF76E0800F5CF1FF01F04206E24
:10195000690EF66E100EF76E0900F5501A5CD8A0ED
:1019600009D06A0EF66E100EF76E0800F5CF1FF064
:101970001F041A6E20C007F01AC008F01AC009F040
:101980001BC00AF01CC00BF01DC00CF01EC00DF0F7
:101990002050BEEC0AF01200076E0DD0000E096E4A
:1019A000030E03D0000E096E050E086E0DD0000E5A
:1019B000096E060EFAD707500C0AD8B4EFD71C0AE6
:1019C000D8B4F0D7020AF3D7010E046E340EF66EC7
:1019D000100EF76E0800F55043EC0DF0000E046E8B
:1019E000085043EC0DF01200016EC69A000EC76E4F
:1019F00007D0110E03D0120E01D0100EC66E0BD000
:101A00000150040AD8B4F9D7140AD8B4F2D7500A4E
:101A1000D8B4F1D7F2D7949A94889496C68A1200D3
:101A200001C00DF002C00EF003C00FF004C010F0B2
:101A300005C009F006C00AF007C00BF008C00CF0A2
:101A400020EE09F000EE01F0070EDBCFEBFFE80619
:101A5000FCE21200000E896E000E8A6E000E8B6E84
:101A6000000E8C6E000E8D6E92689368800E946EE0
:101A7000010E956E040E966E000EC26E0F0EC16EB4
:101A800037EC08F01200066E0404D8B403D0056ADF
:101A9000052A01D0056A05468C500518FD0B05186E
:101AA0008C6E8C90065082EC0DF08C8012000150F0
:101AB0000302F3CF05F0F4CF06F001500402F35017
:101AC000062602500302F350062605C001F006C0A8
:101AD00002F01200026E02C0C9FF9EB602D0010ED3
:101AE00001D0000E016EC7B002D0010E01D0000E71
:101AF0000110F3E1C95012003F6A000EF86E0001B8
:0E1B0000BDEF09F0036E03506AEC0DF0120009
:020000040020DA
:08000000FFFFFFFFFFFFFFFF00
:020000040030CA
:0E000000FF061F1EFF8381FF0F400FE00F4021
:00000001FF
