:0400000069EF1AF09A
:1010000000D300940082004B00FF00000000FF00AE
:101010000000FFFF00008CFF000000FF00FFFFFF4B
:10102000008080800000000000C7C5C4C3C2C1C0EA
:10103000B4B3B2B13A3938363534302C2B2A29289A
:10104000262120131211100100C7C5C4C3C2C1C09C
:10105000B4B3B2B13A3938363534302C2B2A29287A
:101060002621201312111001008080A0804A616E99
:101070002032382C2032303138202031313A35308E
:0510800020504D0000AE
:101086001A6E86EF13F0000E016E000E026E000E51
:10109600036E000E046E000E056E000E066E000E48
:1010A600076E000E086E1DEC1AF0E9CFD9FFEACFE5
:1010B600DAFF00EE11F0070EDBCFEBFFE806FCE2ED
:1010C6001200210E016E800E026E000E036E000EDF
:1010D600046E000E056E100E066E420E076E080EAA
:1010E600086E1DEC1AF0E9CFD9FFEACFDAFF00EE61
:1010F60011F0070EDBCFEBFFE806FCE21200000E54
:10110600016E000E026E000E036E000E046E000EDF
:10111600056E280E066EA50E076E000E086E1DECF7
:101126001AF0E9CFD9FFEACFDAFF00EE11F0070E89
:10113600DBCFEBFFE806FCE21200FA0E016E4A0E68
:10114600026E010E036E000E046E000E056E000E9A
:10115600066EA50E076EBE0E086E1DEC1AF0E9CFE0
:10116600D9FFEACFDAFF00EE11F0070EDBCFEBFF77
:10117600E806FCE21200A30E016EF40E026E110EDA
:10118600036E000E046E000E056E100E066E5F0EE8
:10119600076E8A0E086E1DEC1AF0E9CFD9FFEACF6A
:1011A600DAFF00EE11F0070EDBCFEBFFE806FCE2FC
:1011B6001200110E016EAA0E026E260E036E000EAE
:1011C600046E000E056EC80E066EAA0E076E100E91
:1011D600086E1DEC1AF0E9CFD9FFEACFDAFF00EE70
:1011E60011F0070EDBCFEBFFE806FCE21200280E3B
:1011F600016E390E026E590E036E000E046E000E5D
:10120600056E000E066E510E076E8A0E086E1DECF8
:101216001AF0E9CFD9FFEACFDAFF00EE11F0070E98
:10122600DBCFEBFFE806FCE21200000E016E000EBB
:10123600026E000E036E000E046E000E056E100E9A
:10124600066E420E076E000E086E1DEC1AF0E9CF10
:10125600D9FFEACFDAFF00EE11F0070EDBCFEBFF86
:10126600E806FCE21200100E016E820E026E100EEF
:10127600036E040E046E000E056E110E066E220E2F
:10128600076E840E086E1DEC1AF0E9CFD9FFEACF7F
:10129600DAFF00EE11F0070EDBCFEBFFE806FCE20B
:1012A6001200420E016E880E026E100E036E010EC3
:1012B600046E400E056E100E066E820E076E100E40
:1012C600086E1DEC1AF0E9CFD9FFEACFDAFF00EE7F
:1012D60011F0070EDBCFEBFFE806FCE21200010E71
:1012E600016E000E026E000E036E000E046E000EFE
:1012F600056E900E066EEA0E076E2A0E086E1DEC3F
:101306001AF0E9CFD9FFEACFDAFF00EE11F0070EA7
:10131600DBCFEBFFE806FCE21200270E016E040E9F
:10132600026E000E036E000E046E000E056E000EB9
:10133600066E400E076EC80E086E1DEC1AF0E9CF59
:10134600D9FFEACFDAFF00EE11F0070EDBCFEBFF95
:10135600E806FCE21200000E016E800E026E110E0F
:10136600036E010E046E000E056E000E066E000E74
:10137600076E000E086E1DEC1AF0E9CFD9FFEACF12
:10138600DAFF00EE11F0070EDBCFEBFFE806FCE21A
:101396001200070E016E000E026E000E036E000EA6
:1013A600046E000E056E000E066E000E076EC00E71
:1013B600086E1DEC1AF0E9CFD9FFEACFDAFF00EE8E
:1013C60011F0070EDBCFEBFFE806FCE21200000E81
:1013D600016E800E026E380E036E020E046E000E53
:1013E600056E000E066E000E076E000E086E1DECF2
:1013F6001AF0E9CFD9FFEACFDAFF00EE11F0070EB7
:10140600DBCFEBFFE806FCE21200110E016E220EA6
:10141600026E040E036E000E046E000E056E400E84
:10142600066E880E076E100E086E1DEC1AF0E9CFD8
:10143600D9FFEACFDAFF00EE11F0070EDBCFEBFFA4
:10144600E806FCE212008C0E016E8A0E026E000E99
:10145600036E000E046E800E056EA80E066E180E44
:10146600076E630E086E1DEC1AF0E9CFD9FFEACFBE
:10147600DAFF00EE11F0070EDBCFEBFFE806FCE229
:101486001200210E016EE40E026E030E036E000EB4
:10149600046E800E056E980E066E420E076E080EDE
:1014A600086E1DEC1AF0E9CFD9FFEACFDAFF00EE9D
:1014B60011F0070EDBCFEBFFE806FCE21200110E7F
:1014C600016EE10E026E030E036E000E046EC00E78
:1014D600056EC50E066E080E076E110E086E1DEC23
:1014E6001AF0E9CFD9FFEACFDAFF00EE11F0070EC6
:1014F600DBCFEBFFE806FCE21200840E016ED10E94
:10150600026E010E036E000E046EE00E056E430EB3
:10151600066E440E076E1C0E086E1DEC1AF0E9CF1F
:10152600D9FFEACFDAFF00EE11F0070EDBCFEBFFB3
:10153600E806FCE21200FA0E016E080E026E010EBB
:10154600036E000E046E000E056E210E066EA60ECC
:10155600076E540E086E1DEC1AF0E9CFD9FFEACFDC
:10156600DAFF00EE11F0070EDBCFEBFFE806FCE238
:101576001200840E016ED10E026E010E036E000E75
:10158600046EE00E056E870E066ED00E076E260EF2
:10159600086E1DEC1AF0E9CFD9FFEACFDAFF00EEAC
:1015A60011F0070EDBCFEBFFE806FCE212008C0E13
:1015B600016ED10E026E010E036E000E046EC00E99
:1015C600056EC50E066E100E076E5E0E086E1DECDD
:1015D6001AF0E9CFD9FFEACFDAFF00EE11F0070ED5
:1015E600DBCFEBFFE806FCE21200110E016E420EA5
:1015F600026E000E036E000E046EE00E056E430EC4
:10160600066E840E076E080E086E1DEC1AF0E9CF02
:10161600D9FFEACFDAFF00EE11F0070EDBCFEBFFC2
:10162600E806FCE212008C0E016ED10E026E010E6F
:10163600036E000E046EC00E056EC50E066E180E05
:10164600076E5D0E086E1DEC1AF0E9CFD9FFEACFE2
:10165600DAFF00EE11F0070EDBCFEBFFE806FCE247
:101666001200840E016ED10E026E010E036E000E84
:10167600046EC00E056EC50E066E180E076E3D0E84
:10168600086E1DEC1AF0E9CFD9FFEACFDAFF00EEBB
:1016960011F0070EDBCFEBFFE806FCE21200200E8E
:1016A600016E8E0E026E000E036E000E046E000EAC
:1016B600056E100E066E470E076E000E086E1DECC8
:1016C6001AF0E9CFD9FFEACFDAFF00EE11F0070EE4
:1016D600DBCFEBFFE806FCE21200010E016E800E86
:1016E600026E110E036E010E046E000E056E000EE4
:1016F600066E400E076E1C0E086E1DEC1AF0E9CF42
:10170600D9FFEACFDAFF00EE11F0070EDBCFEBFFD1
:10171600E806FCE21200100E016E040E026E410E87
:10172600036E000E046E000E056E400E066E440E2D
:10173600076E440E086E1DEC1AF0E9CFD9FFEACF0A
:10174600DAFF00EE11F0070EDBCFEBFFE806FCE256
:101756001200000E016E1F0E026E000E036E000ECA
:10176600046E000E056E000E066E000E076E3E0E2F
:10177600086E1DEC1AF0E9CFD9FFEACFDAFF00EECA
:1017860011F0070EDBCFEBFFE806FCE21200440E79
:10179600016E440E026E040E036E000E046E000E01
:1017A600056E040E066E410E076E100E086E1DECD9
:1017B6001AF0E9CFD9FFEACFDAFF00EE11F0070EF3
:1017C600DBCFEBFFE806FCE21200220E016E040EF0
:1017D600026E100E036E000E046E000E056EB80E3D
:1017E600066E180E076E210E086E1DEC1AF0E9CF74
:1017F600D9FFEACFDAFF00EE11F0070EDBCFEBFFE1
:10180600E806FCE21200AD0E016E2D0E026E780E99
:10181600036E000E046E000E056EB80E066E180EF0
:10182600076E730E086E1DEC1AF0E9CFD9FFEACFEA
:10183600DAFF00EE11F0070EDBCFEBFFE806FCE265
:1018460012008F0E016E310E026E020E036E000E36
:10185600046E800E056EA80E066E180E076EE30E59
:10186600086E1DEC1AF0E9CFD9FFEACFDAFF00EED9
:1018760011F0070EDBCFEBFFE806FCE21200940E38
:10188600016EF20E026E010E036E000E046EE00E85
:10189600056E490E066E290E076E9D0E086E1DEC2E
:1018A6001AF0E9CFD9FFEACFDAFF00EE11F0070E02
:1018B600DBCFEBFFE806FCE21200080E016ED10E4C
:1018C600026E010E036E000E046EC00E056EC50E8E
:1018D600066E100E076E420E086E1DEC1AF0E9CF6A
:1018E600D9FFEACFDAFF00EE11F0070EDBCFEBFFF0
:1018F600E806FCE21200940E016EF20E026E010E74
:10190600036E000E046EE00E056E490E066E290E7D
:10191600076EA50E086E1DEC1AF0E9CFD9FFEACFC7
:10192600DAFF00EE11F0070EDBCFEBFFE806FCE274
:101936001200080E016EE10E026E030E036E000E1B
:10194600046EE00E056E870E066E100E076E5E0EB6
:10195600086E1DEC1AF0E9CFD9FFEACFDAFF00EEE8
:1019660011F0070EDBCFEBFFE806FCE21200080ED3
:10197600016E210E026E000E036E000E046EE00E66
:10198600056E870E066E100E076E5E0E086E1DEC57
:101996001AF0E9CFD9FFEACFDAFF00EE11F0070E11
:1019A600DBCFEBFFE806FCE212008E0E016ED10ED5
:1019B600026E010E036E000E046EC00E056EC50E9D
:1019C600066E100E076E420E086E1DEC1AF0E9CF79
:1019D600D9FFEACFDAFF00EE11F0070EDBCFEBFFFF
:1019E600E806FCE212008C0E016E310E026E020E4B
:1019F600036E000E046E200E056EC60E066E180EE1
:101A0600076E7F0E086E1DEC1AF0E9CFD9FFEACFFC
:101A1600DAFF00EE11F0070EDBCFEBFFE806FCE283
:101A26001200210E016EC40E026E010E036E000E30
:101A3600046EC00E056E110E066E420E076E080E7F
:101A4600086E1DEC1AF0E9CFD9FFEACFDAFF00EEF7
:101A560011F0070EDBCFEBFFE806FCE21200420EA8
:101A6600016EC90E026E000E036E000E046E800E2D
:101A7600056E230E066E840E076E100E086E1DECA4
:101A86001AF0E9CFD9FFEACFDAFF00EE11F0070E20
:101A9600DBCFEBFFE806FCE21200490E016E310EC9
:101AA600026E020E036E000E046E200E056EC60E4A
:101AB600066E540E076E460E086E1DEC1AF0E9CF40
:101AC600D9FFEACFDAFF00EE11F0070EDBCFEBFF0E
:101AD600E806FCE21200080E016EE10E026E030E2D
:101AE600036E000E046E200E056E840E066E100E3A
:101AF600076E420E086E1DEC1AF0E9CFD9FFEACF49
:101B0600DAFF00EE11F0070EDBCFEBFFE806FCE292
:101B160012008C0E016E310E026E020E036E000E66
:101B2600046E200E056EC60E066E5D0E076E6B0EFB
:101B3600086E1DEC1AF0E9CFD9FFEACFDAFF00EE06
:101B460011F0070EDBCFEBFFE806FCE21200CE0E2B
:101B5600016E310E026E020E036E000E046E200E32
:101B6600056ECE0E066E590E076E6B0E086E1DECD8
:101B76001AF0E9CFD9FFEACFDAFF00EE11F0070E2F
:101B8600DBCFEBFFE806FCE212008C0E016ED10EF5
:101B9600026E010E036E000E046EC00E056EC50EBB
:101BA600066E180E076E630E086E1DEC1AF0E9CF6E
:101BB600D9FFEACFDAFF00EE11F0070EDBCFEBFF1D
:101BC600E806FCE21200080E016E210E026E000EFF
:101BD600036E000E046EE00E056EC50E066E180E40
:101BE600076E5F0E086E1DEC1AF0E9CFD9FFEACF3B
:101BF600DAFF00EE11F0070EDBCFEBFFE806FCE2A2
:101C060012008C0E016ED50E026E410E036E000E92
:101C1600046EC00E056EC50E066E180E076E630EB8
:101C2600086E1DEC1AF0E9CFD9FFEACFDAFF00EE15
:101C360011F0070EDBCFEBFFE806FCE21200490EBF
:101C4600016E310E026E020E036E000E046EE00E81
:101C5600056EC50E066E180E076E5F0E086E1DEC3D
:101C66001AF0E9CFD9FFEACFDAFF00EE11F0070E3E
:101C7600DBCFEBFFE806FCE21200840E016ED10E0C
:101C8600026E010E036E000E046EC00E056EC50ECA
:101C9600066E100E076E1C0E086E1DEC1AF0E9CFCC
:101CA600D9FFEACFDAFF00EE11F0070EDBCFEBFF2C
:101CB600E806FCE21200210E016E840E026E000E92
:101CC600036E000E046EE00E056E130E066E420ED7
:101CD600076E080E086E1DEC1AF0E9CFD9FFEACFA1
:101CE600DAFF00EE11F0070EDBCFEBFFE806FCE2B1
:101CF60012008C0E016ED10E026E010E036E000EE6
:101D0600046E200E056EC60E066E180E076E630E66
:101D1600086E1DEC1AF0E9CFD9FFEACFDAFF00EE24
:101D260011F0070EDBCFEBFFE806FCE21200520EC5
:101D3600016E840E026E000E036E000E046E200EFF
:101D4600056EC60E066E180E076EA30E086E1DEC07
:101D56001AF0E9CFD9FFEACFDAFF00EE11F0070E4D
:101D6600DBCFEBFFE806FCE21200AD0E016E550E6E
:101D7600026E010E036E000E046E200E056EC60E78
:101D8600066E180E076E6B0E086E1DEC1AF0E9CF84
:101D9600D9FFEACFDAFF00EE11F0070EDBCFEBFF3B
:101DA600E806FCE21200520E016E310E026E020EC1
:101DB600036E000E046E200E056E460E066EA50E10
:101DC600076E880E086E1DEC1AF0E9CFD9FFEACF30
:101DD600DAFF00EE11F0070EDBCFEBFFE806FCE2C0
:101DE6001200210E016E840E026E000E036E000EAE
:101DF600046E200E056E460E066EA50E076E080EC4
:101E0600086E1DEC1AF0E9CFD9FFEACFDAFF00EE33
:101E160011F0070EDBCFEBFFE806FCE21200100E16
:101E2600016EE10E026E030E036E000E046EE00EEE
:101E3600056E430E066E840E076E880E086E1DEC48
:101E46001AF0E9CFD9FFEACFDAFF00EE11F0070E5C
:101E5600DBCFEBFFE806FCE21200100E016E420E2D
:101E6600026E080E036E070E046EC00E056E090E96
:101E7600066E210E076E840E086E1DEC1AF0E9CF71
:101E8600D9FFEACFDAFF00EE11F0070EDBCFEBFF4A
:101E9600E806FCE21200410E016E080E026E420ECA
:101EA600036E000E046E000E056E840E066E200E86
:101EB600076E040E086E1DEC1AF0E9CFD9FFEACFC3
:101EC600DAFF00EE11F0070EDBCFEBFFE806FCE2CF
:101ED6001200420E016E080E026E210E036E070EF0
:101EE600046EC00E056E210E066E840E076E100E71
:101EF600086E1DEC1AF0E9CFD9FFEACFDAFF00EE43
:101F060011F0070EDBCFEBFFE806FCE21200000E35
:101F1600016E000E026E000E036E000E046E000EC1
:101F2600056E100E066E150E076E010E086E1DEC80
:101F36001AF0E9CFD9FFEACFDAFF00EE11F0070E6B
:101F4600DBCFEBFFE806FCE21200000E016E000E8E
:101F5600026E800E036E0F0E046E000E056E000EEE
:101F6600066E000E076E000E086E1DEC1AF0E9CF25
:101F7600D9FFEACFDAFF00EE11F0070EDBCFEBFF59
:101F8600E806FCE21200000E016E000E026E000E64
:101F9600036E000E046EC00E056E100E066E040E65
:101FA600076E000E086E1DEC1AF0E9CFD9FFEACFD6
:101FB600DAFF00EE11F0070EDBCFEBFFE806FCE2DE
:101FC60012008F0E016ED90E026E020E036E000E07
:101FD600046E000E056E000E066EE00E076EA00E75
:101FE600086E1DEC1AF0E9CFD9FFEACFDAFF00EE52
:101FF60011F0070EDBCFEBFFE806FCE212008C0EB9
:10200600016EF10E026E010E036E000E046E200EBE
:10201600056E840E066EF00E076E620E086E1DECDF
:102026001AF0E9CFD9FFEACFDAFF00EE11F0070E7A
:10203600DBCFEBFFE806FCE21200080E016ED10EC4
:10204600026E010E036E000E046E000E056E000E8B
:10205600066EE00E076E620E086E1DEC1AF0E9CFF2
:10206600D9FFEACFDAFF00EE11F0070EDBCFEBFF68
:10207600E806FCE212008C0E016ED10E026E030E13
:10208600036E000E046E000E056E420E066EE80E1E
:10209600076E630E086E1DEC1AF0E9CFD9FFEACF82
:1020A600DAFF00EE11F0070EDBCFEBFFE806FCE2ED
:1020B60012000F0E016ED10E026E010E036E000E9F
:1020C600046E000E056E000E066EE00E076EE20E42
:1020D600086E1DEC1AF0E9CFD9FFEACFDAFF00EE61
:1020E60011F0070EDBCFEBFFE806FCE21200100E44
:1020F600016E420E026E000E036E000E046E800E1E
:10210600056E490E066E210E076E9E0E086E1DECBC
:102116001AF0E9CFD9FFEACFDAFF00EE11F0070E89
:10212600DBCFEBFFE806FCE212008C0E016E1E0E02
:10213600026E460E036E070E046E000E056E000E4E
:10214600066EE00E076E620E086E1DEC1AF0E9CF01
:10215600D9FFEACFDAFF00EE11F0070EDBCFEBFF77
:10216600E806FCE212008C0E016E310E026E020EC3
:10217600036E000E046E200E056E840E066ED00EE3
:10218600076E660E086E1DEC1AF0E9CFD9FFEACF8E
:10219600DAFF00EE11F0070EDBCFEBFFE806FCE2FC
:1021A6001200210E016EC40E026E010E036E000EA9
:1021B600046E000E056E100E066E600E076E080E9B
:1021C600086E1DEC1AF0E9CFD9FFEACFDAFF00EE70
:1021D60011F0070EDBCFEBFFE806FCE21200420E21
:1021E600016E280E026E250E036E030E046E000E9F
:1021F600056E010E066E860E076E100E086E1DEC3D
:102206001AF0E9CFD9FFEACFDAFF00EE11F0070E98
:10221600DBCFEBFFE806FCE21200280E016E290E6A
:10222600026E020E036E000E046E200E056E840E04
:10223600066E900E076ECA0E086E1DEC1AF0E9CFF8
:10224600D9FFEACFDAFF00EE11F0070EDBCFEBFF86
:10225600E806FCE21200210E016EC40E026E010EAB
:10226600036E000E046EC00E056E100E066E420E54
:10227600076E080E086E1DEC1AF0E9CFD9FFEACFFB
:10228600DAFF00EE11F0070EDBCFEBFFE806FCE20B
:102296001200AD0E016E350E026E020E036E000EBA
:1022A600046E000E056E000E066EB00E076E6A0E08
:1022B600086E1DEC1AF0E9CFD9FFEACFDAFF00EE7F
:1022C60011F0070EDBCFEBFFE806FCE212008C0EE6
:1022D600016E310E026E020E036E000E046E000ECB
:1022E600056E000E066ED00E076E660E086E1DECAD
:1022F6001AF0E9CFD9FFEACFDAFF00EE11F0070EA8
:10230600DBCFEBFFE806FCE212008C0E016ED10E6D
:10231600026E010E036E000E046E000E056E000EB8
:10232600066EE00E076E620E086E1DEC1AF0E9CF1F
:10233600D9FFEACFDAFF00EE11F0070EDBCFEBFF95
:10234600E806FCE21200840E016E2F0E026E840E69
:10235600036E000E046E000E056E000E066EF00E85
:10236600076E200E086E1DEC1AF0E9CFD9FFEACFF2
:10237600DAFF00EE11F0070EDBCFEBFFE806FCE21A
:1023860012008C0E016E1E0E026E420E036E080EB9
:10239600046E000E056E000E066EE00E076E630EEE
:1023A600086E1DEC1AF0E9CFD9FFEACFDAFF00EE8E
:1023B60011F0070EDBCFEBFFE806FCE21200080E79
:1023C600016E210E026E000E036E000E046E000EEC
:1023D600056E000E066ED00E076E660E086E1DECBC
:1023E6001AF0E9CFD9FFEACFDAFF00EE11F0070EB7
:1023F600DBCFEBFFE806FCE21200410E016ED10EC8
:10240600026E010E036E000E046E000E056E000EC7
:10241600066EE00E076EA20E086E1DEC1AF0E9CFEE
:10242600D9FFEACFDAFF00EE11F0070EDBCFEBFFA4
:10243600E806FCE21200100E016E920E026E010E0C
:10244600036E000E046E000E056E080E066EF10E8B
:10245600076E840E086E1DEC1AF0E9CFD9FFEACF9D
:10246600DAFF00EE11F0070EDBCFEBFFE806FCE229
:1024760012008C0E016ED90E026E020E036E000E55
:10248600046E000E056E000E066E100E076E630ECD
:10249600086E1DEC1AF0E9CFD9FFEACFDAFF00EE9D
:1024A60011F0070EDBCFEBFFE806FCE21200540E3C
:1024B600016E8A0E026E000E036E000E046E000E92
:1024C600056E000E066E100E076E630E086E1DEC8E
:1024D6001AF0E9CFD9FFEACFDAFF00EE11F0070EC6
:1024E600DBCFEBFFE806FCE21200AD0E016E550EE7
:1024F600026E010E036E000E046E000E056E000ED7
:10250600066E100E076E630E086E1DEC1AF0E9CF0C
:10251600D9FFEACFDAFF00EE11F0070EDBCFEBFFB3
:10252600E806FCE21200210E016E2A0E026E020E71
:10253600036E000E046E000E056E000E066E100E83
:10254600076E150E086E1DEC1AF0E9CFD9FFEACF1B
:10255600DAFF00EE11F0070EDBCFEBFFE806FCE238
:102566001200CC0E016E160E026E460E036E070E9C
:10257600046E000E056E000E066E100E076E630EDC
:10258600086E1DEC1AF0E9CFD9FFEACFDAFF00EEAC
:1025960011F0070EDBCFEBFFE806FCE21200110E8E
:1025A600016EE10E026E030E036E000E046E000E47
:1025B600056E000E066EF00E076E110E086E1DEC0F
:1025C6001AF0E9CFD9FFEACFDAFF00EE11F0070ED5
:1025D600DBCFEBFFE806FCE21200200E016E840E54
:1025E600026E100E036E0C0E046E000E056E130EB8
:1025F600066E420E076EC80E086E1DEC1AF0E9CF85
:10260600D9FFEACFDAFF00EE11F0070EDBCFEBFFC2
:10261600E806FCE21200210E016E840E026E100E18
:10262600036E000E046E000E056E100E066E420E50
:10263600076E080E086E1DEC1AF0E9CFD9FFEACF37
:10264600DAFF00EE11F0070EDBCFEBFFE806FCE247
:102656001200260E016E840E026E900E036E010E9F
:10266600046E600E056E100E066E420E076E080EA4
:10267600086E1DEC1AF0E9CFD9FFEACFDAFF00EEBB
:1026860011F0070EDBCFEBFFE806FCE21200000EAE
:10269600016E000E026E000E036E000E046E000E3A
:1026A600056EC80E066E9A0E076E000E086E1DECBD
:1026B6001AF0E9CFD9FFEACFDAFF00EE11F0070EE4
:1026C600DBCFEBFFE806FCE21200000E016E000E07
:1026D600026E000E036E000E046E000E056E000EF6
:1026E600066E000E076E000E086E1DEC1AF0E9CF9E
:1026F600D9FFEACFDAFF00EE11F0070EDBCFEBFFD2
:10270600E806FCE212001A50200AD8B446EF08F098
:10271600010AD8B464EF08F0030AD8B482EF08F0CF
:10272600010AD8B4A0EF08F0070AD8B4BEEF08F043
:10273600010AD8B4DCEF08F0030AD8B4FAEF08F0BF
:10274600010AD8B418EF09F00F0AD8B436EF09F029
:10275600010AD8B454EF09F0030AD8B472EF09F0AD
:10276600010AD8B490EF09F0070AD8B4AEEF09F021
:10277600010AD8B4CCEF09F0030AD8B4EAEF09F09D
:10278600010AD8B408EF0AF01F0AD8B426EF0AF0F7
:10279600010AD8B444EF0AF0030AD8B462EF0AF08B
:1027A600010AD8B480EF0AF0070AD8B49EEF0AF0FF
:1027B600010AD8B4BCEF0AF0030AD8B4DAEF0AF07B
:1027C600010AD8B4F8EF0AF00F0AD8B416EF0BF0E6
:1027D600010AD8B434EF0BF0030AD8B452EF0BF069
:1027E600010AD8B470EF0BF0070AD8B48EEF0BF0DD
:1027F600010AD8B4ACEF0BF0030AD8B4CAEF0BF059
:10280600010AD8B4E8EF0BF07F0AD8B406EF0CF053
:10281600010AD8B424EF0CF0030AD8B442EF0CF046
:10282600010AD8B460EF0CF0070AD8B47EEF0CF0BA
:10283600010AD8B49CEF0CF0030AD8B4BAEF0CF036
:10284600010AD8B4D8EF0CF00F0AD8B4F6EF0CF0A2
:10285600010AD8B414EF0DF0030AD8B432EF0DF024
:10286600010AD8B450EF0DF0070AD8B46EEF0DF098
:10287600010AD8B48CEF0DF0030AD8B4AAEF0DF014
:10288600010AD8B4C8EF0DF01F0AD8B4E6EF0DF070
:10289600010AD8B404EF0EF0030AD8B422EF0EF002
:1028A600010AD8B440EF0EF0070AD8B45EEF0EF076
:1028B600010AD8B47CEF0EF0030AD8B49AEF0EF0F2
:1028C600010AD8B4B8EF0EF00F0AD8B4D6EF0EF05E
:1028D600010AD8B4F4EF0EF0030AD8B412EF0FF0E1
:1028E600010AD8B430EF0FF0070AD8B44EEF0FF054
:1028F600010AD8B46CEF0FF0030AD8B48AEF0FF0D0
:10290600010AD8B4A8EF0FF03F0AD8B4C6EF0FF00B
:10291600010AD8B4E4EF0FF0030AD8B402EF10F0BE
:10292600010AD8B420EF10F0070AD8B43EEF10F031
:10293600010AD8B45CEF10F0030AD8B47AEF10F0AD
:10294600010AD8B498EF10F00F0AD8B40CD4010AD3
:10295600D8B427D4030AD8B442D4010AD8B45DD473
:10296600070AD8B478D4010AD8B493D4030AD8B4E1
:10297600AED4010AD8B4C9D41F0AD8B4E4D4010A23
:10298600D8B4FFD4030AD8B41AD5010AD8B435D5B9
:10299600070AD8B450D5010AD8B46BD5030AD8B4FF
:1029A60086D5010AD8B4A1D50F0AD8B4BCD5010A78
:1029B600D8B4D7D5030AD8B4F2D5010AD8B40DD6FF
:1029C600070AD8B428D6010AD8B443D6030AD8B41D
:1029D6005ED67BD68C808C8295909592040E01EC07
:1029E6001AF0020E1B6E040E1A6EBA0EE82EFED7F1
:1029F6001A2EFCD71B2EFAD700D0010E046E470EF6
:102A0600F66E100EF76E0800F5507FEC1AF0070E02
:102A16001B6E990E1A6E490EE82EFED71A2EFCD79B
:102A26001B2EFAD700F0010E046E450EF66E100E40
:102A3600F76E0800F5507FEC1AF0070E1B6E990E24
:102A46001A6E490EE82EFED71A2EFCD71B2EFAD781
:102A560000F0010E046E330EF66E100EF76E0800CF
:102A6600F5507FEC1AF0000E046E000E7FEC1AF0A3
:102A7600000E046E060E7FEC1AF0000E046E030EB6
:102A86007FEC1AF0010E046E320EF66E100EF76E23
:102A96000800F5507FEC1AF0000E046E010E7FEC74
:102AA6001AF0000E046E2C0E7FEC1AF0000E046E67
:102AB6002D0E7FEC1AF0010E046E310EF66E100E1E
:102AC600F76E0800F5507FEC1AF0000E046E010E4A
:102AD6007FEC1AF0000E046E2C0E7FEC1AF0000E3E
:102AE600046E2D0E7FEC1AF0010E046E300EF66E9B
:102AF600100EF76E0800F5507FEC1AF0000E046E0B
:102B0600000E7FEC1AF0010E046E2F0EF66E100EFC
:102B1600F76E0800F5507FEC1AF0000E046EA20E58
:102B26007FEC1AF0000E046E020E7FEC1AF0000E17
:102B3600046E840E7FEC1AF0010E046E2E0EF66EF5
:102B4600100EF76E0800F5507FEC1AF0000E046EBA
:102B5600C50E7FEC1AF0010E046E2D0EF66E100EE9
:102B6600F76E0800F5507FEC1AF0000E046E0A0EA0
:102B76007FEC1AF0000E046E000E7FEC1AF0010EC8
:102B8600046E2C0EF66E100EF76E0800F5507FECF4
:102B96001AF0000E046E8A0E7FEC1AF0000E046E18
:102BA6002A0E7FEC1AF0010E046E2B0EF66E100E36
:102BB600F76E0800F5507FEC1AF0000E046E8A0ED0
:102BC6007FEC1AF0000E046E2A0E7FEC1AF0010E4E
:102BD600046E2A0EF66E100EF76E0800F5507FECA6
:102BE6001AF0000E046E3C0E7FEC1AF0010E046E15
:102BF600420EF66E100EF76E0800F5507FEC1AF0D6
:102C0600120ED9EC19F0010E046E400EF66E100E7F
:102C1600F76E0800F5507FEC1AF0000E046E010EF8
:102C26007FEC1AF0010E046E360EF66E100EF76E7D
:102C36000800F5507FEC1AF0010E046E430EF66E96
:102C4600100EF76E0800F5507FEC1AF07C8C7C8E27
:102C56007C8A7C987C967C94010E046E370EF66E08
:102C6600100EF76E0800F5507FEC1AF0000E046E99
:102C76007C507FEC1AF06A0EF66E100EF76E0800A6
:102C8600F5CF07F0000E086E690EF66E100EF76EA1
:102C96000800F5CF09F0250EF66E100EF76E090046
:102CA600F5CF0AF00900F5CF0BF00900F5CF0CF0CF
:102CB6000A00F5CF0DF0000E73EC17F0010E046E4E
:102CC6003E0EF66E100EF76E0800F5507FEC1AF009
:102CD600820E1A6EDE0EE82EFED71A2EFCD71200D2
:102CE60050EC1AF0690EF66E100EF76E0800F5CF6E
:102CF60007F0000E086E0E0E096E190EF66E100E17
:102D0600F76E0900F5CF0AF00900F5CF0BF00900C0
:102D1600F5CF0CF00A00F5CF0DF0000E73EC17F0AE
:102D2600690EF66E100EF76E0800F5CF07F00E0E60
:102D3600086E6E0E096E250EF66E100EF76E090001
:102D4600F5CF0AF00900F5CF0BF00900F5CF0CF02E
:102D56000A00F5CF0DF0000E73EC17F0690EF66E53
:102D6600100EF76E0800F5CF07F0720E086E800E93
:102D7600096E1D0EF66E100EF76E0900F5CF0AF0FD
:102D86000900F5CF0BF00900F5CF0CF00A00F5CFDE
:102D96000DF0000E73EC17F0000E3D6E000E3C6E4B
:102DA600000E3F6E000E3E6E6D0E406E100E416EB2
:102DB600D4EC18F020EE65F010EE4AF0160EDBCFDC
:102DC600E3FFE806FCE2000E646EB40E636E76D096
:102DD60063C007F064C008F0000E0A6E3C0E096E70
:102DE60028EC19F00750300F536E000E046E3C0E9F
:102DF600036E63C001F064C002F06AEC19F001C012
:102E060007F002C008F0000E0A6E0A0E096E28ECE2
:102E160019F00750300F596E000E046E3C0E036E0B
:102E260063C001F064C002F06AEC19F001C061F001
:102E360002C062F061C001F062C002F0000E046ED2
:102E46000A0E036E6AEC19F00150300F5A6E690EC5
:102E5600F66E100EF76E0800F5CF07F0720E086ECC
:102E6600800E096E1D0EF66E100EF76E0900F5CF78
:102E76000AF00900F5CF0BF00900F5CF0CF00A00B7
:102E8600F5CF0DF0000E73EC17F0000E3D6E000E40
:102E96003C6E000E3F6E720E3E6E4A0E406E000E87
:102EA600416ED4EC18F0330E496EBB0E486EE00E40
:102EB600E82EFED7482EFCD7492EFAD76350486E27
:102EC6006450496E010E635E000E645A49BE00EFFF
:102ED60000F0495004E14804D8A000EF00F078D78C
:102EE600196E7CBC7CAA05D0030E0826030E0926A3
:102EF60015D07CAE08D0020E0826020E0926030E57
:102F06001926030E0ED07CAC07D0020E0826020E40
:102F16000926192A072A06D0082A092A020E19267E
:102F2600020E0726010E046E3C0EF66E100EF76EAC
:102F36000800F5507FEC1AF0000E046E000E7FECD0
:102F46001AF0000E046E19507FEC1AF0000E046E93
:102F5600000E7FEC1AF0000E046E07047FEC1AF0E8
:102F6600010E046E3D0EF66E100EF76E0800F5505B
:102F76007FEC1AF0000E046E000E7FEC1AF0000EC5
:102F8600046E08507FEC1AF0000E046E000E7FEC03
:102F96001AF0000E046E09047FEC1AF0010E046E9E
:102FA6003B0EF66E100EF76E0800F5507FEC1AF029
:102FB60019500718D8A414D008500918D8A410D04E
:102FC600000E046E0A507FEC1AF0000E046E0B50D1
:102FD6007FEC1AF0000E046E0C507FEC1AF0120013
:102FE60019500E6E0F6A0E1E0F1E0E4A0F2A07503C
:102FF6000E24016E000E0F20026E0850106E116A2C
:10300600101E111E104A112A09501024036E000EBC
:103016001120046E93EC1AF001C012F002C013F0F6
:103026000AC016F00BC017F00CC018F08C908C82FA
:10303600000E156E000E146E0BD01650C4EC1AF06E
:103046001750C4EC1AF01850C4EC1AF0144A152A9A
:103056001250145C13501558D8A0EFD78C8012006C
:10306600010E316E000E326E000E336E000E346E9F
:10307600000E366E000E356E36BE08D0365005E1AF
:10308600200E355CD8B0120001D012003150251444
:103096002D6E325026142E6E335027142F6E345058
:1030A6002814306E2D502E102F103010D8B42BD07F
:1030B60035C007F036C008F0000E0A6E050E096E20
:1030C60028EC19F0075023241A6E250EF66E100E02
:1030D600F76E0900F5CF1BF00900F5CF1CF00900CB
:1030E600F5CF1DF00A00F5CF1EF035C001F036C051
:1030F60002F0000E046E050E036E6AEC19F0015024
:103106002124A2EC19F0315029142D6E32502A14C4
:103116002E6E33502B142F6E34502C14306E2D50CF
:103126002E102F103010D8B42FD0200E3524076E55
:10313600000E3620086E000E0A6E050E096E28EC8B
:1031460019F0075023241A6E250EF66E100EF76E30
:103156000900F5CF1BF00900F5CF1CF00900F5CFEB
:103166001DF00A00F5CF1EF0200E3524016E000E6C
:103176003620026E000E046E050E036E6AEC19F020
:1031860001502124A2EC19F0D8903136323633366C
:103196003436354A362A36BE79D7365001E170D7ED
:1031A6001200000E476E000E466E34D046C001F087
:1031B60047C002F0000E046E060E036E93EC1AF082
:1031C6003C500124446E3D500220456E44C037F009
:1031D60045C038F03EC039F03FC03AF04650402472
:1031E600426E47504120436E42C0F6FF43C0F7FF90
:1031F600000EF86E0F0EF76403D00800F55005D0E8
:10320600F6CFE9FFF7CFEAFFEF503B6E37EC1AF047
:10321600464A472A46504024426E47504120436E54
:1032260042C0F6FF43C0F7FF000EF86E0F0EF764BC
:1032360003D00800F55005D0F6CFE9FFF7CFEAFF37
:10324600EF500009D8B41200B1D7000E0C6E0AAECA
:1032560006D0096C0A1ED8B00A2A010E0C6E08AEFA
:1032660006D0076C081ED8B0082A010E0C1A000EEC
:103276000E6E000E0D6E09500A10D8B41CD0010E49
:103286000B6E04D0D89009360A360B2A0AAEFAD746
:10329600D8900D360E360950075C0A500858D8A04B
:1032A60005D00950075E0A50085A0D80D8900A3298
:1032B60009320B2EEDD70C50D8B404D00D6C0E1E6F
:1032C600D8B00E2A0DC007F00EC008F01200000E8E
:1032D600066E02AE06D0016C021ED8B0022A010E9E
:1032E600066E04AE04D0036C041ED8B0042A035044
:1032F6000410D8B418D0010E056E04D0D890033649
:103306000436052A04AEFAD70350015C045002586D
:10331600D8A004D00350015E0450025AD89004325B
:103326000332052EF1D70650D8B404D0016C021E24
:10333600D8B0022A01C001F002C002F01200206ECD
:103346006A0EF66E100EF76E0900F550205CD8A0D6
:1033560009D06A0EF66E100EF76E0800F5CF1FF054
:103366001F04206E690EF66E100EF76E0900F550FA
:103376001A5CD8A009D06A0EF66E100EF76E080019
:10338600F5CF1FF01F041A6E20C007F01AC008F010
:103396001AC009F01BC00AF01CC00BF01DC00CF0CF
:1033A6001EC00DF0205073EC17F01200076E0DD002
:1033B600000E096E030E03D0000E096E050E086E90
:1033C6000DD0000E096E060EFAD707500C0AD8B4B7
:1033D600EFD71C0AD8B4F0D7020AF3D7010E046E51
:1033E600340EF66E100EF76E0800F5507FEC1AF0EC
:1033F600000E046E08507FEC1AF01200016EC69A99
:10340600000EC76E07D0110E03D0120E01D0100E9B
:10341600C66E0BD00150040AD8B4F9D7140AD8B432
:10342600F2D7500AD8B4F1D7F2D7949A94889496E2
:10343600C68A120001C00DF002C00EF003C00FF0E4
:1034460004C010F005C009F006C00AF007C00BF072
:1034560008C00CF020EE09F000EE01F0070EDBCFFD
:10346600EBFFE806FCE2120037C021F038C022F07C
:1034760039C023F03AC024F03B5043EC08F0E9CFC2
:10348600D9FFEACFDAFF00EE25F0070EDBCFEBFF20
:10349600E806FCE233EC18F01200000E896E000E0E
:1034A6008A6E000E8B6E000E8C6E000E8D6E92680C
:1034B6009368800E946E010E956E040E966E000E45
:1034C600C26E0F0EC16EEDEC14F01200700EF66EA9
:1034D600350EF76E000EF86E00EE65F010EE17F082
:1034E6000900F5CFEEFFE550E150FAE17C6A000EE7
:1034F600F86E000173EF16F0066E0404D8B403D01C
:10350600056A052A01D0056A05468C500518FD0B8B
:1035160005188C6E8C900650C4EC1AF08C80120044
:1035260001500302F3CF05F0F4CF06F00150040278
:10353600F350062602500302F350062605C001F09A
:1035460006C002F01200026E02C0C9FF9EB602D08B
:10355600010E01D0000E016EC7B002D0010E01D0DF
:10356600000E0110F3E1C95012004554413A2020E3
:103576002020202D206D696E202D2D20736563007F
:013586000044
:0A358800036E0350A6EC1AF01200C7
:020000040020DA
:08000000FFFFFFFFFFFFFFFF00
:020000040030CA
:0E000000FF061F1EFF8381FF0F400FE00F4021
:00000001FF
