:04000000E8EF0BF02A
:1010000000D300940082004B00FF00000000FF00AE
:101010000000FFFF00008CFF000000FF00FFFFFF4B
:10102000008080800000000000C7C5C4C3C2C1C0EA
:10103000B4B3B2B13A3938363534302C2B2A29289A
:10104000262120131211100100C7C5C4C3C2C1C09C
:10105000B4B3B2B13A3938363534302C2B2A29287A
:101060002621201312111001008080A080008C80A6
:101070008C8295909592040E7AEC0BF0020E1B6E0A
:10108000040E1A6EBA0EE82EFED71A2EFCD71B2EAF
:10109000FAD700D0010E046E470EF66E100EF76EF2
:1010A0000800F550AFEC0BF0070E1B6E990E1A6E90
:1010B000490EE82EFED71A2EFCD71B2EFAD700F0C9
:1010C000010E046E450EF66E100EF76E0800F55018
:1010D000AFEC0BF0070E1B6E990E1A6E490EE82E40
:1010E000FED71A2EFCD71B2EFAD700F0010E046E85
:1010F000330EF66E100EF76E0800F550AFEC0BF0E5
:10110000000E046E000EAFEC0BF0000E046E060E27
:10111000AFEC0BF0000E046E030EAFEC0BF0010E03
:10112000046E320EF66E100EF76E0800F550AFEC3E
:101130000BF0000E046E010EAFEC0BF0000E046E0F
:101140002C0EAFEC0BF0000E046E2D0EAFEC0BF07E
:10115000010E046E310EF66E100EF76E0800F5509B
:10116000AFEC0BF0000E046E010EAFEC0BF0000EB6
:10117000046E2C0EAFEC0BF0000E046E2D0EAFECD7
:101180000BF0010E046E300EF66E100EF76E0800B6
:10119000F550AFEC0BF0000E046E000EAFEC0BF050
:1011A000010E046E2F0EF66E100EF76E0800F5504D
:1011B000AFEC0BF0000E046EA20EAFEC0BF0000EC5
:1011C000046E020EAFEC0BF0000E046E840EAFEC5A
:1011D0000BF0010E046E2E0EF66E100EF76E080068
:1011E000F550AFEC0BF0000E046EC50EAFEC0BF03B
:1011F000010E046E2D0EF66E100EF76E0800F550FF
:10120000AFEC0BF0000E046E0A0EAFEC0BF0000E0C
:10121000046E000EAFEC0BF0010E046E2C0EF66E99
:10122000100EF76E0800F550AFEC0BF0000E046ED8
:101230008A0EAFEC0BF0000E046E2A0EAFEC0BF032
:10124000010E046E2B0EF66E100EF76E0800F550B0
:10125000AFEC0BF0000E046E8A0EAFEC0BF0000E3C
:10126000046E2A0EAFEC0BF0010E046E2A0EF66E21
:10127000100EF76E0800F550AFEC0BF0000E046E88
:101280003C0EAFEC0BF0010E046E420EF66E100E2B
:10129000F76E0800F550AFEC0BF0120E52EC0BF0AD
:1012A000010E046E400EF66E100EF76E0800F5503B
:1012B000AFEC0BF0000E046E010EAFEC0BF0010E64
:1012C000046E360EF66E100EF76E0800F550AFEC99
:1012D0000BF0010E046E430EF66E100EF76E080052
:1012E000F550AFEC0BF01C8C1C8E1C8A1C981C96C5
:1012F0001C94010E046E370EF66E100EF76E080089
:10130000F550AFEC0BF0000E046E1C50AFEC0BF080
:101310006A0EF66E100EF76E0800F5CF07F0000E9D
:10132000086E690EF66E100EF76E0800F5CF09F024
:10133000250EF66E100EF76E0900F5CF0AF00900C3
:10134000F5CF0BF00900F5CF0CF00A00F5CF0DF04A
:10135000000E92EC0AF0010E046E3E0EF66E100EB8
:10136000F76E0800F550AFEC0BF0820E1A6EDE0E31
:10137000E82EFED71A2EFCD7120096EC0BF0120EB8
:10138000076E000E086E690EF66E100EF76E0800FE
:10139000F5CF09F0190EF66E100EF76E0900F5CFB5
:1013A0000AF00900F5CF0BF00900F5CF0CF00A00A8
:1013B000F5CF0DF0000E92EC0AF0240E076E000E31
:1013C000086E690EF66E100EF76E0800F5CF09F084
:1013D000150EF66E100EF76E0900F5CF0AF0090033
:1013E000F5CF0BF00900F5CF0CF00A00F5CF0DF0AA
:1013F000120E92EC0AF0360E076E000E086E690EA1
:10140000F66E100EF76E0800F5CF09F0110EF66EAD
:10141000100EF76E0900F5CF0AF00900F5CF0BF0BA
:101420000900F5CF0CF00A00F5CF0DF0240E92EC78
:101430000AF0480E076E000E086E690EF66E100E6A
:10144000F76E0800F5CF09F00D0EF66E100EF76E70
:101450000900F5CF0AF00900F5CF0BF00900F5CF30
:101460000CF00A00F5CF0DF0360E92EC0AF05A0E91
:10147000076E000E086E690EF66E100EF76E08000D
:10148000F5CF09F0090EF66E100EF76E0900F5CFD4
:101490000AF00900F5CF0BF00900F5CF0CF00A00B7
:1014A000F5CF0DF0480E92EC0AF06C0E076E000EB0
:1014B000086E690EF66E100EF76E0800F5CF09F093
:1014C000050EF66E100EF76E0900F5CF0AF0090052
:1014D000F5CF0BF00900F5CF0CF00A00F5CF0DF0B9
:1014E0005A0E92EC0AF0800E076E000E086E690E1E
:1014F000F66E100EF76E0800F5CF09F0010EF66ECD
:10150000100EF76E0900F5CF0AF00900F5CF0BF0C9
:101510000900F5CF0CF00A00F5CF0DF06C0E92EC3F
:101520000AF02DD7196E1CBC1CAA05D0030E082684
:10153000030E092615D01CAE08D0020E0826020E96
:101540000926030E1926030E0ED01CAC07D0020E7E
:101550000826020E0926192A072A06D0082A092A6F
:10156000020E1926020E0726010E046E3C0EF66EC0
:10157000100EF76E0800F550AFEC0BF0000E046E85
:10158000000EAFEC0BF0000E046E1950AFEC0BF038
:10159000000E046E000EAFEC0BF0000E046E07049C
:1015A000AFEC0BF0010E046E3D0EF66E100EF76EF2
:1015B0000800F550AFEC0BF0000E046E000EAFEC1F
:1015C0000BF0000E046E0850AFEC0BF0000E046E32
:1015D000000EAFEC0BF0000E046E0904AFEC0BF044
:1015E000010E046E3B0EF66E100EF76E0800F550FD
:1015F000AFEC0BF019500718D8A414D008500918F4
:10160000D8A410D0000E046E0A50AFEC0BF0000E00
:10161000046E0B50AFEC0BF0000E046E0C50AFECF0
:101620000BF0120019500E6E0F6A0E1E0F1E0E4A9E
:101630000F2A07500E24016E000E0F20026E085074
:10164000106E116A101E111E104A112A0950102422
:10165000036E000E1120046EC3EC0BF001C012F0FB
:1016600002C013F00AC016F00BC017F00CC018F03F
:101670008C908C82000E156E000E146E0BD01650DE
:10168000EEEC0BF01750EEEC0BF01850EEEC0BF00C
:10169000144A152A1250145C13501558D8A0EFD7CD
:1016A0008C801200076E0DD0000E096E030E03D061
:1016B000000E096E050E086E0DD0000E096E060EA6
:1016C000FAD707500C0AD8B4EFD71C0AD8B4F0D711
:1016D000020AF3D7010E046E340EF66E100EF76E8A
:1016E0000800F550AFEC0BF0000E046E0850AFECA4
:1016F0000BF01200016EC69A000EC76E07D0110ED5
:1017000003D0120E01D0100EC66E0BD00150040A89
:10171000D8B4F9D7140AD8B4F2D7500AD8B4F1D74C
:10172000F2D7949A94889496C68A1200000E896E15
:10173000000E8A6E000E8B6E000E8C6E000E8D6E8B
:1017400092689368800E946E010E956E040E966EEC
:10175000000EC26E0F0EC16E37EC08F01200066E5E
:101760000404D8B403D0056A052A01D0056A0546E9
:101770008C500518FD0B05188C6E8C900650EEEC05
:101780000BF08C80120001500302F3CF05F0F4CF70
:1017900006F001500402F350062602500302F350F3
:1017A000062605C001F006C002F01200026E02C05B
:1017B000C9FF9EB602D0010E01D0000E016EC7B067
:1017C00002D0010E01D0000E0110F3E1C950120049
:1017D0001C6A000EF86E0001BDEF09F0036E0350A5
:0617E000D6EC0BF0120034
:020000040020DA
:08000000FFFFFFFFFFFFFFFF00
:020000040030CA
:0E000000FF061F1EFF8381FF0F400FE00F4021
:00000001FF
