:0400000007EF00F016
:0A000800248217ED08F08FEF09F0D5
:10100000003132334134353642373839432A3023C0
:1010100044000001021002284368617267653F20A6
:0D1020002000434841524745213F21000078
:10102E000600FACF05F0FBCF06F0E9CF07F0EACFC6
:10103E0008F0E1CF09F0E2CF0AF0D9CF0BF0DACF0A
:10104E000CF0F3CF0DF0F4CF0EF0F6CF0FF0F7CF8C
:10105E0010F0F8CF11F0F5CF12F024C013F025C028
:10106E0014F026C015F027C016F0F0A01FD0C00E49
:10107E00B8EC09F081380F0B0F0B176E1750010DDE
:10108E00010EF324F66E100EF420F76E0800F550E4
:10109E00AEEC09F0800EB8EC09F0410E046EEE0EC7
:1010AE00E82EFED7042EFCD700D0F09016C027F005
:1010BE0015C026F014C025F013C024F012C0F5FFA1
:1010CE0011C0F8FF10C0F7FF0FC0F6FF0EC0F4FFFF
:1010DE000DC0F3FF0CC0DAFF0BC0D9FF0AC0E2FF50
:1010EE0009C0E1FF08C0EAFF07C0E9FF06C0FBFF29
:1010FE0005C0FAFF24921100000E896E000E8A6E52
:10110E00000E8B6E000E8C6E000E8D6E92689368C4
:10111E00000E946E000E956E000E966E000EC26E50
:10112E000F0EC16EF086F28E54EC09F0180E1B6E87
:10113E00100E1C6E7AEC09F0800EA4EC09F0410E34
:10114E00206EEE0EE82EFED7202EFCD700D0330EEA
:10115E00216EBB0E206EE00EE82EFED7202EFCD7A1
:10116E00212EFAD7220E1B6E100E1C6E7AEC09F091
:10117E00800EA4EC09F0410E206EEE0EE82EFED786
:10118E00202EFCD700D0330E216EBB0E206EE00E4B
:10119E00E82EFED7202EFCD7212EFAD7C7D7196EF0
:1011AE001950F00B186E8C500F0B8C6E18508C1053
:1011BE008C6E000EF2BE010E226EF29E8C86530EC7
:1011CE00E82EFED700F08C96C80E00D0E82EFDD784
:1011DE0022B002D0F29E01D0F28E1938F00B196EA9
:1011EE001950F00B186E8C500F0B8C6E18508C1013
:1011FE008C6E000EF2BE010E226EF29E8C86530E87
:10120E00E82EFED700F08C96C80E00D0E82EFDD743
:10121E0022B002D0F29E01D0F28E1200026E025067
:10122E00F00B016E8C500F0B8C6E01508C108C6E6F
:10123E00000EF2BE010E226EF29E8C86530EE82E2A
:10124E00FED700F08C96C80E00D0E82EFDD722B047
:10125E0002D0F29E01D0F28E0238F00B026E0250D6
:10126E00F00B016E8C500F0B8C6E01508C108C6E2F
:10127E00000EF2BE010E226EF29E8C86530EE82EEA
:10128E00FED700F08C96C80E00D0E82EFDD722B007
:10129E0002D0F29E01D0F28E1200C30E1B6ECD0E46
:1012AE00E82EFED71B2EFCD700F0330EA4EC09F06F
:1012BE00320EA4EC09F0280EA4EC09F00F0EA4ECEB
:1012CE0009F0060EA4EC09F0010EA4EC09F0C30E11
:1012DE001B6ECD0EE82EFED71B2EFCD700F00F0E88
:1012EE00A4EC09F012001D0E1D6E000E1E6E03D032
:1012FE001F509AEC09F01BC0F6FF1CC0F7FF1B4AEB
:10130E001C2A0800F5CF1FF01F50D8B41200F0D7DA
:10131E00236A226A24902492000EF86E100EF76E45
:10132E00000183EF08F01A6E8C841A50D6EC08F088
:10133E00C80E00D0E82EFDD712001A6E8C941A50EB
:10134E00D6EC08F0C80E00D0E82EFDD71200036EC2
:10135E008C84035015EC09F0C80E00D0E82EFDD792
:10136E001200036E8C94035015EC09F0C80E00D0D9
:06137E00E82EFDD712006D
:020000040020DA
:08000000FFFFFFFFFFFFFFFF00
:020000040030CA
:0E000000FF061F1EFF8381FF0F400FE00F4021
:00000001FF
