:0400000007EF00F016
:0A0008004F820DED08F053EF0AF0EF
:10100000003132334134353642373839432A3023C0
:0910100044000001021002280056
:10101A000600FACF04F0FBCF05F0E9CF06F0EACFDD
:10102A0007F0E1CF08F0E2CF09F0D9CF0AF0DACF22
:10103A000BF0F3CF0CF0F4CF0DF0F6CF0EF0F7CFA4
:10104A000FF0F8CF10F0F5CF11F04FC012F050C0EA
:10105A0013F051C014F052C015F09EA844D0000EEF
:10106A00F2BE010E2F6EF29E20EE03F04D50D926ED
:10107A004E50DA22DF50016E0150010D4DC0D9FFEA
:10108A004EC0DAFFDECF02F0DDCF03F0F3500224C8
:10109A00D96EF4500320DA6EDF50AD6E2FB002D055
:1010AA00F29E01D0F28E20EE03F04D50D9264E501A
:1010BA00DA22DF2A20EE02F04D50D9264E50DA22EB
:1010CA0010EE03F04D50E1264E50E222DE50E618B3
:1010DA00D8A409D09D9820EE08F04D50D9264E503C
:1010EA00DA22010EDF6E9EAA65D0ABA408D020EEEC
:1010FA000AF04D50D9264E50DA22010E07D020EEC2
:10110A000AF04D50D9264E50DA22000EDF6E000E3C
:10111A00F2BE010E2F6EF29E20EE07F04D50D92638
:10112A004E50DA22DF50016E0150010D20EE04F01C
:10113A004D50D9264E50DA22DECF02F0DDCF03F031
:10114A00F3500224D96EF4500320DA6EAECFDFFFDB
:10115A002FB002D0F29E01D0F28EABA203D0AB9890
:10116A00AB8808D020EE0BF04D50D9264E50DA222B
:10117A00000EDF6E20EE07F04D50D9264E50DA22CF
:10118A00DF2A20EE06F04D50D9264E50DA2210EE14
:10119A0007F04D50E1264E50E222DE50E65CD8A020
:1011AA0009D09D9A20EE09F04D50D9264E50DA22E8
:1011BA00010EDF6E15C052F014C051F013C050F08A
:1011CA0012C04FF011C0F5FF10C0F8FF0FC0F7FFB3
:1011DA000EC0F6FF0DC0F4FF0CC0F3FF0BC0DAFF20
:1011EA000AC0D9FF09C0E2FF08C0E1FF07C0EAFF51
:1011FA0006C0E9FF05C0FBFF04C0FAFF4F921100C9
:10120A00000E896E000E8A6E000E8B6E000E8C6EBA
:10121A00000E8D6E92689368800E946E000E956E25
:10122A00000E966E000EC26E0F0EC16E2DEC0AF005
:10123A00800E286E250E296E000E2A6E000E2B6E69
:10124A00000E166E5A0E176E620E186E020E196E88
:10125A0028C024F029C025F02AC026F02BC027F088
:10126A00060ED8902436253626362736E82EF9D7A4
:10127A0024C01AF025C01BF026C01CF027C01DF0A0
:10128A0088EC09F01604AF6EAC9CAC98AC8A410E9F
:10129A00246EEE0EE82EFED7242EFCD700D0AB9C8F
:1012AA00AB88949C948EAB8E81B202D09EAAFCD756
:1012BA009EAA0AD0AECF2CF0ABA202D0AB98AB88D4
:1012CA002C506EEC0AF0F0D781380F0B0F0B2D6EF5
:1012DA0081B2FED7ACB202D0010E01D0000E246E4C
:1012EA009EB802D0010E01D0000E2410F3E12D5059
:1012FA00010D010EF324F66E100EF420F76E0800AD
:10130A00F5CFADFFD1D7000E1F6E1DAE0AD01D1E40
:10131A001C1E1B1E1A6C000E1B221C221D22010EF3
:10132A001F6E19AE0AD0191E181E171E166C000E53
:10133A00172218221922010E1F1A000E206E000E03
:10134A00216E000E226E000E236E1A501B101C1006
:10135A001D10D8B42AD0010E1E6E06D0D8901A36A7
:10136A001B361C361D361E2A1DAEF8D7D8902036DD
:10137A002136223623361A50165C1B5017581C5039
:10138A0018581D501958D8A009D01A50165E1B506B
:10139A00175A1C50185A1D50195A2080D8901D32BD
:1013AA001C321B321A321E2EE1D71F50D8B408D075
:1013BA00231E221E211E206C000E212222222322FD
:1013CA0020C016F021C017F022C018F023C019F06F
:1013DA001200176E1750F00B166E8C500F0B8C6E96
:1013EA0016508C108C6E000EF2BE010E2E6EF29EFE
:1013FA008C86530EE82EFED700F08C96C80E00D0CD
:10140A00E82EFDD72EB002D0F29E01D0F28E173808
:10141A00F00B176E1750F00B166E8C500F0B8C6E6C
:10142A0016508C108C6E000EF2BE010E2E6EF29EBD
:10143A008C86530EE82EFED700F08C96C80E00D08C
:10144A00E82EFDD72EB002D0F29E01D0F28E120005
:10145A00C30E196ECD0EE82EFED7192EFCD700F05A
:10146A00330E78EC0AF0320E78EC0AF0280E78EC9B
:10147A000AF00F0E78EC0AF0060E78EC0AF0010E6C
:10148A0078EC0AF0C30E196ECD0EE82EFED7192E8F
:10149A00FCD700F00F0E78EC0AF01200040EF66E7C
:1014AA00150EF76E000EF86E0900F5CF4DF0090023
:1014BA00F5CF4EF000EE2EF01F0EEE6AE806FDE1C3
:1014CA004F904F92000EF86E100EF76E000105EF66
:1014DA0009F0186E8C841850EEEC09F0C80E00D092
:1014EA00E82EFDD71200186E8C941850EEEC09F015
:0C14FA00C80E00D0E82EFDD71200410003
:020000040020DA
:08000000FFFFFFFFFFFFFFFF00
:020000040030CA
:0E000000FF061F1EFF8381FF0F400FE00F4021
:00000001FF
